:020000040000FA
:1000000000009E2820308316850083128501013070
:100010008316B800B90100308316A100B830A000E3
:10002000A201A301A4018312851E78280030831643
:100030002402031D1D2801302302031C1328003055
:1000400083162402031D26280730230203181328D1
:1000500083162303A500003083128A0036308316EE
:100060002507031C352883128A0A82003C2846286B
:1000700050285A2864286E28023083128500D03018
:10008000FF000730122283128501132801308312EA
:100090008500D030FF00073012228312850113281B
:1000A000033083128500D030FF0007301222831204
:1000B00085011328113083128500D030FF000730EE
:1000C0001222831285011328163083128500D03046
:1000D000FF00073012228312850113281930831282
:1000E0008500D030FF0007301222831285011328CB
:1000F0008312850183162008FE002108FF002208D4
:100100008721831638088316A500831639088316BD
:10011000A6000630FD000030FE002508FF0026087E
:100120003A218316A6007F08A500A50A0319A60A8E
:100130002508A3002608A400132808003C30FE0070
:100140000230FF00803000000000F12100000000BC
:1001500083120000A1007F08A0003E30A200023000
:10016000A300831200002008A4002108A500FF308E
:10017000A007031CA1032508240403193629043011
:100180002207A400A501A50D2308A5072408FE0049
:100190002508FF00803000000000F1210000000071
:1001A00083120000A7007F08A6002208FE00230893
:1001B000FF00803000000000F121000000008312E9
:1001C0000000A900A5007F08A400A80002302207B3
:1001D000A400A501A50D2308A5072408FE002508F5
:1001E000FF00803000000000F121000000008312B9
:1001F0000000A500AB007F08AA00A4008312000045
:100200002608AA002708AB00FF30A607031CA70397
:100210002B082A0403192F292808FE002908FF00AB
:10022000803000000000DE2100000000831200008A
:10023000AA0024088312031384008313831200008E
:10024000251883172A0883120313800083120000E5
:10025000A80A0319A90AA40A0319A50AFE28063048
:1002600083120000A2070318A30AB12800000000AF
:100270000228080083120000AD007F08AC007E0851
:10028000AF007D08AE00B001B101831200002F085D
:100290008039031D0130B2003208031D66290310A6
:1002A000AE0DAF0D2F082D02031D58292E082C026C
:1002B00003186029031083120000AF0CAE0C6629EE
:1002C00083120000B10A3108B000452983120000F2
:1002D0002F082D02031D6E292E082C02031C7829DD
:1002E000831200002E08AC022F08031C2F0FAD0252
:1002F000031083120000AF0CAE0C3008B100B00345
:100300003108031D66292C08FF002D0808008316FC
:10031000A9007F08A8007E08A700FE002808FF00AB
:100320002908F1218316AB007F08AA002A1CBE29E8
:1003300003102B0CAD002A0CAC002D08FD002C087E
:10034000FC002708FE002808FF002908CF2183169B
:100350002C08AE002D08AF0008302E06AE00AC0011
:10036000D0302F06AD00AF00FD002E08FC0027089E
:10037000FE002808FF002908CF21CE29031083168C
:100380002B0CAD002A0CAC002D08FD002C08FC0045
:100390002708FE002808FF002908CF210800003A9E
:1003A0000319D32908007E08840083137F1883175C
:1003B0007C088000840A7D0880000800003A031948
:1003C000E529803A0319EC2900347E088400831360
:1003D0007F188317000808007F088A007E088200C3
:1003E0000800003A0319F929803A0319032AFF018A
:1003F00000347E08840083137F1883170008FF00F1
:10040000840A0008080000000000EC21FD00FE0F37
:10041000FF03FF0A00000000EC21FC007D08FF0044
:100420007C0808008316B1007F08B000B201B30158
:10043000831631083302031D1F2A300832020318C5
:100440003B2A8316B4010130B500FF308316340710
:10045000B600FF30B70035080318350FB707360868
:10046000B4003708B50037083604031D252AB20A40
:100470000319B30A182A0800013400344434023442
:0A048000BA340034013400340034B3
:02400E00D73F9A
:00000001FF
